:100000000EC028C027C026C025C024C023C022C0DF
:1000100021C020C01FC01EC01DC01CC01BC0112499
:100020001FBECFE5D1E0DEBFCDBF10E0A0E6B0E05F
:10003000E0EDF0E002C005900D92A837B107D9F7C6
:1000400020E0A8E7B0E001C01D92A937B207E1F7B0
:100050000AD03CC0D5CFB99AB89A83EA8ABD84E663
:1000600089BD88BD0895F7DF83B7826083BF809123
:100070007800843120F48F5F8093780002C0109262
:10008000780080917400843120F48F5F8093740035
:1000900002C010927400E0917800F0E0E05AFF4F47
:1000A000908180917600890F89BDE0917400F0E025
:1000B000E05AFF4F908180917500890F88BD83EDD4
:1000C00090E30197F1F700C00000D1CFF894FFCF83
:1000D0000A14E2F61428140A05F61428140A050A6C
:0800E00014E2F6140A64640046
:00000001FF
